No.     Time           Source                Destination           Protocol Length Info
      1 0.000000       0.0.0.0               255.255.255.255       DHCP     314    DHCP Discover - Transaction ID 0x3d1d

Frame 1: 314 bytes on wire (2512 bits), 314 bytes captured (2512 bits)
    Encapsulation type: Ethernet (1)
    Arrival Time: Dec  5, 2004 20:16:24.317453000 CET
    [Time shift for this packet: 0.000000000 seconds]
    Epoch Time: 1102274184.317453000 seconds
    [Time delta from previous captured frame: 0.000000000 seconds]
    [Time delta from previous displayed frame: 0.000000000 seconds]
    [Time since reference or first frame: 0.000000000 seconds]
    Frame Number: 1
    Frame Length: 314 bytes (2512 bits)
    Capture Length: 314 bytes (2512 bits)
    [Frame is marked: False]
    [Frame is ignored: False]
    [Protocols in frame: eth:ethertype:ip:udp:dhcp]
    [Coloring Rule Name: UDP]
    [Coloring Rule String: udp]
Ethernet II, Src: Grandstr_01:fc:42 (00:0b:82:01:fc:42), Dst: Broadcast (ff:ff:ff:ff:ff:ff)
    Destination: Broadcast (ff:ff:ff:ff:ff:ff)
        Address: Broadcast (ff:ff:ff:ff:ff:ff)
        .... ..1. .... .... .... .... = LG bit: Locally administered address (this is NOT the factory default)
        .... ...1 .... .... .... .... = IG bit: Group address (multicast/broadcast)
    Source: Grandstr_01:fc:42 (00:0b:82:01:fc:42)
        Address: Grandstr_01:fc:42 (00:0b:82:01:fc:42)
        .... ..0. .... .... .... .... = LG bit: Globally unique address (factory default)
        .... ...0 .... .... .... .... = IG bit: Individual address (unicast)
    Type: IPv4 (0x0800)
Internet Protocol Version 4, Src: 0.0.0.0, Dst: 255.255.255.255
    0100 .... = Version: 4
    .... 0101 = Header Length: 20 bytes (5)
    Differentiated Services Field: 0x00 (DSCP: CS0, ECN: Not-ECT)
        0000 00.. = Differentiated Services Codepoint: Default (0)
        .... ..00 = Explicit Congestion Notification: Not ECN-Capable Transport (0)
    Total Length: 300
    Identification: 0xa836 (43062)
    Flags: 0x00
        0... .... = Reserved bit: Not set
        .0.. .... = Don't fragment: Not set
        ..0. .... = More fragments: Not set
    ...0 0000 0000 0000 = Fragment Offset: 0
    Time to Live: 250
    Protocol: UDP (17)
    Header Checksum: 0x178b [validation disabled]
    [Header checksum status: Unverified]
    Source Address: 0.0.0.0
    Destination Address: 255.255.255.255
User Datagram Protocol, Src Port: 68, Dst Port: 67
    Source Port: 68
    Destination Port: 67
    Length: 280
    Checksum: 0x591f [unverified]
    [Checksum Status: Unverified]
    [Stream index: 0]
    [Timestamps]
        [Time since first frame: 0.000000000 seconds]
        [Time since previous frame: 0.000000000 seconds]
    UDP payload (272 bytes)
Dynamic Host Configuration Protocol (Discover)
    Message type: Boot Request (1)
    Hardware type: Ethernet (0x01)
    Hardware address length: 6
    Hops: 0
    Transaction ID: 0x00003d1d
    Seconds elapsed: 0
    Bootp flags: 0x0000 (Unicast)
        0... .... .... .... = Broadcast flag: Unicast
        .000 0000 0000 0000 = Reserved flags: 0x0000
    Client IP address: 0.0.0.0
    Your (client) IP address: 0.0.0.0
    Next server IP address: 0.0.0.0
    Relay agent IP address: 0.0.0.0
    Client MAC address: Grandstr_01:fc:42 (00:0b:82:01:fc:42)
    Client hardware address padding: 00000000000000000000
    Server host name not given
    Boot file name not given
    Magic cookie: DHCP
    Option: (53) DHCP Message Type (Discover)
        Length: 1
        DHCP: Discover (1)
    Option: (61) Client identifier
        Length: 7
        Hardware type: Ethernet (0x01)
        Client MAC address: Grandstr_01:fc:42 (00:0b:82:01:fc:42)
    Option: (50) Requested IP Address (0.0.0.0)
        Length: 4
        Requested IP Address: 0.0.0.0
    Option: (55) Parameter Request List
        Length: 4
        Parameter Request List Item: (1) Subnet Mask
        Parameter Request List Item: (3) Router
        Parameter Request List Item: (6) Domain Name Server
        Parameter Request List Item: (42) Network Time Protocol Servers
    Option: (255) End
        Option End: 255
    Padding: 00000000000000

0000  ff ff ff ff ff ff 00 0b 82 01 fc 42 08 00 45 00   ...........B..E.
0010  01 2c a8 36 00 00 fa 11 17 8b 00 00 00 00 ff ff   .,.6............
0020  ff ff 00 44 00 43 01 18 59 1f 01 01 06 00 00 00   ...D.C..Y.......
0030  3d 1d 00 00 00 00 00 00 00 00 00 00 00 00 00 00   =...............
0040  00 00 00 00 00 00 00 0b 82 01 fc 42 00 00 00 00   ...........B....
0050  00 00 00 00 00 00 00 00 00 00 00 00 00 00 00 00   ................
0060  00 00 00 00 00 00 00 00 00 00 00 00 00 00 00 00   ................
0070  00 00 00 00 00 00 00 00 00 00 00 00 00 00 00 00   ................
0080  00 00 00 00 00 00 00 00 00 00 00 00 00 00 00 00   ................
0090  00 00 00 00 00 00 00 00 00 00 00 00 00 00 00 00   ................
00a0  00 00 00 00 00 00 00 00 00 00 00 00 00 00 00 00   ................
00b0  00 00 00 00 00 00 00 00 00 00 00 00 00 00 00 00   ................
00c0  00 00 00 00 00 00 00 00 00 00 00 00 00 00 00 00   ................
00d0  00 00 00 00 00 00 00 00 00 00 00 00 00 00 00 00   ................
00e0  00 00 00 00 00 00 00 00 00 00 00 00 00 00 00 00   ................
00f0  00 00 00 00 00 00 00 00 00 00 00 00 00 00 00 00   ................
0100  00 00 00 00 00 00 00 00 00 00 00 00 00 00 00 00   ................
0110  00 00 00 00 00 00 63 82 53 63 35 01 01 3d 07 01   ......c.Sc5..=..
0120  00 0b 82 01 fc 42 32 04 00 00 00 00 37 04 01 03   .....B2.....7...
0130  06 2a ff 00 00 00 00 00 00 00                     .*........

No.     Time           Source                Destination           Protocol Length Info
      2 0.000295       192.168.0.1           192.168.0.10          DHCP     342    DHCP Offer    - Transaction ID 0x3d1d

Frame 2: 342 bytes on wire (2736 bits), 342 bytes captured (2736 bits)
    Encapsulation type: Ethernet (1)
    Arrival Time: Dec  5, 2004 20:16:24.317748000 CET
    [Time shift for this packet: 0.000000000 seconds]
    Epoch Time: 1102274184.317748000 seconds
    [Time delta from previous captured frame: 0.000295000 seconds]
    [Time delta from previous displayed frame: 0.000295000 seconds]
    [Time since reference or first frame: 0.000295000 seconds]
    Frame Number: 2
    Frame Length: 342 bytes (2736 bits)
    Capture Length: 342 bytes (2736 bits)
    [Frame is marked: False]
    [Frame is ignored: False]
    [Protocols in frame: eth:ethertype:ip:udp:dhcp]
    [Coloring Rule Name: UDP]
    [Coloring Rule String: udp]
Ethernet II, Src: Dell_ad:f1:9b (00:08:74:ad:f1:9b), Dst: Grandstr_01:fc:42 (00:0b:82:01:fc:42)
    Destination: Grandstr_01:fc:42 (00:0b:82:01:fc:42)
        Address: Grandstr_01:fc:42 (00:0b:82:01:fc:42)
        .... ..0. .... .... .... .... = LG bit: Globally unique address (factory default)
        .... ...0 .... .... .... .... = IG bit: Individual address (unicast)
    Source: Dell_ad:f1:9b (00:08:74:ad:f1:9b)
        Address: Dell_ad:f1:9b (00:08:74:ad:f1:9b)
        .... ..0. .... .... .... .... = LG bit: Globally unique address (factory default)
        .... ...0 .... .... .... .... = IG bit: Individual address (unicast)
    Type: IPv4 (0x0800)
Internet Protocol Version 4, Src: 192.168.0.1, Dst: 192.168.0.10
    0100 .... = Version: 4
    .... 0101 = Header Length: 20 bytes (5)
    Differentiated Services Field: 0x00 (DSCP: CS0, ECN: Not-ECT)
        0000 00.. = Differentiated Services Codepoint: Default (0)
        .... ..00 = Explicit Congestion Notification: Not ECN-Capable Transport (0)
    Total Length: 328
    Identification: 0x0445 (1093)
    Flags: 0x00
        0... .... = Reserved bit: Not set
        .0.. .... = Don't fragment: Not set
        ..0. .... = More fragments: Not set
    ...0 0000 0000 0000 = Fragment Offset: 0
    Time to Live: 128
    Protocol: UDP (17)
    Header Checksum: 0x0000 [validation disabled]
    [Header checksum status: Unverified]
    Source Address: 192.168.0.1
    Destination Address: 192.168.0.10
User Datagram Protocol, Src Port: 67, Dst Port: 68
    Source Port: 67
    Destination Port: 68
    Length: 308
    Checksum: 0x2233 [unverified]
    [Checksum Status: Unverified]
    [Stream index: 1]
    [Timestamps]
        [Time since first frame: 0.000000000 seconds]
        [Time since previous frame: 0.000000000 seconds]
    UDP payload (300 bytes)
Dynamic Host Configuration Protocol (Offer)
    Message type: Boot Reply (2)
    Hardware type: Ethernet (0x01)
    Hardware address length: 6
    Hops: 0
    Transaction ID: 0x00003d1d
    Seconds elapsed: 0
    Bootp flags: 0x0000 (Unicast)
        0... .... .... .... = Broadcast flag: Unicast
        .000 0000 0000 0000 = Reserved flags: 0x0000
    Client IP address: 0.0.0.0
    Your (client) IP address: 192.168.0.10
    Next server IP address: 192.168.0.1
    Relay agent IP address: 0.0.0.0
    Client MAC address: Grandstr_01:fc:42 (00:0b:82:01:fc:42)
    Client hardware address padding: 00000000000000000000
    Server host name not given
    Boot file name not given
    Magic cookie: DHCP
    Option: (53) DHCP Message Type (Offer)
        Length: 1
        DHCP: Offer (2)
    Option: (1) Subnet Mask (255.255.255.0)
        Length: 4
        Subnet Mask: 255.255.255.0
    Option: (58) Renewal Time Value
        Length: 4
        Renewal Time Value: (1800s) 30 minutes
    Option: (59) Rebinding Time Value
        Length: 4
        Rebinding Time Value: (3150s) 52 minutes, 30 seconds
    Option: (51) IP Address Lease Time
        Length: 4
        IP Address Lease Time: (3600s) 1 hour
    Option: (54) DHCP Server Identifier (192.168.0.1)
        Length: 4
        DHCP Server Identifier: 192.168.0.1
    Option: (255) End
        Option End: 255
    Padding: 0000000000000000000000000000000000000000000000000000

0000  00 0b 82 01 fc 42 00 08 74 ad f1 9b 08 00 45 00   .....B..t.....E.
0010  01 48 04 45 00 00 80 11 00 00 c0 a8 00 01 c0 a8   .H.E............
0020  00 0a 00 43 00 44 01 34 22 33 02 01 06 00 00 00   ...C.D.4"3......
0030  3d 1d 00 00 00 00 00 00 00 00 c0 a8 00 0a c0 a8   =...............
0040  00 01 00 00 00 00 00 0b 82 01 fc 42 00 00 00 00   ...........B....
0050  00 00 00 00 00 00 00 00 00 00 00 00 00 00 00 00   ................
0060  00 00 00 00 00 00 00 00 00 00 00 00 00 00 00 00   ................
0070  00 00 00 00 00 00 00 00 00 00 00 00 00 00 00 00   ................
0080  00 00 00 00 00 00 00 00 00 00 00 00 00 00 00 00   ................
0090  00 00 00 00 00 00 00 00 00 00 00 00 00 00 00 00   ................
00a0  00 00 00 00 00 00 00 00 00 00 00 00 00 00 00 00   ................
00b0  00 00 00 00 00 00 00 00 00 00 00 00 00 00 00 00   ................
00c0  00 00 00 00 00 00 00 00 00 00 00 00 00 00 00 00   ................
00d0  00 00 00 00 00 00 00 00 00 00 00 00 00 00 00 00   ................
00e0  00 00 00 00 00 00 00 00 00 00 00 00 00 00 00 00   ................
00f0  00 00 00 00 00 00 00 00 00 00 00 00 00 00 00 00   ................
0100  00 00 00 00 00 00 00 00 00 00 00 00 00 00 00 00   ................
0110  00 00 00 00 00 00 63 82 53 63 35 01 02 01 04 ff   ......c.Sc5.....
0120  ff ff 00 3a 04 00 00 07 08 3b 04 00 00 0c 4e 33   ...:.....;....N3
0130  04 00 00 0e 10 36 04 c0 a8 00 01 ff 00 00 00 00   .....6..........
0140  00 00 00 00 00 00 00 00 00 00 00 00 00 00 00 00   ................
0150  00 00 00 00 00 00                                 ......

No.     Time           Source                Destination           Protocol Length Info
      3 0.070031       0.0.0.0               255.255.255.255       DHCP     314    DHCP Request  - Transaction ID 0x3d1e

Frame 3: 314 bytes on wire (2512 bits), 314 bytes captured (2512 bits)
    Encapsulation type: Ethernet (1)
    Arrival Time: Dec  5, 2004 20:16:24.387484000 CET
    [Time shift for this packet: 0.000000000 seconds]
    Epoch Time: 1102274184.387484000 seconds
    [Time delta from previous captured frame: 0.069736000 seconds]
    [Time delta from previous displayed frame: 0.069736000 seconds]
    [Time since reference or first frame: 0.070031000 seconds]
    Frame Number: 3
    Frame Length: 314 bytes (2512 bits)
    Capture Length: 314 bytes (2512 bits)
    [Frame is marked: False]
    [Frame is ignored: False]
    [Protocols in frame: eth:ethertype:ip:udp:dhcp]
    [Coloring Rule Name: UDP]
    [Coloring Rule String: udp]
Ethernet II, Src: Grandstr_01:fc:42 (00:0b:82:01:fc:42), Dst: Broadcast (ff:ff:ff:ff:ff:ff)
    Destination: Broadcast (ff:ff:ff:ff:ff:ff)
        Address: Broadcast (ff:ff:ff:ff:ff:ff)
        .... ..1. .... .... .... .... = LG bit: Locally administered address (this is NOT the factory default)
        .... ...1 .... .... .... .... = IG bit: Group address (multicast/broadcast)
    Source: Grandstr_01:fc:42 (00:0b:82:01:fc:42)
        Address: Grandstr_01:fc:42 (00:0b:82:01:fc:42)
        .... ..0. .... .... .... .... = LG bit: Globally unique address (factory default)
        .... ...0 .... .... .... .... = IG bit: Individual address (unicast)
    Type: IPv4 (0x0800)
Internet Protocol Version 4, Src: 0.0.0.0, Dst: 255.255.255.255
    0100 .... = Version: 4
    .... 0101 = Header Length: 20 bytes (5)
    Differentiated Services Field: 0x00 (DSCP: CS0, ECN: Not-ECT)
        0000 00.. = Differentiated Services Codepoint: Default (0)
        .... ..00 = Explicit Congestion Notification: Not ECN-Capable Transport (0)
    Total Length: 300
    Identification: 0xa837 (43063)
    Flags: 0x00
        0... .... = Reserved bit: Not set
        .0.. .... = Don't fragment: Not set
        ..0. .... = More fragments: Not set
    ...0 0000 0000 0000 = Fragment Offset: 0
    Time to Live: 250
    Protocol: UDP (17)
    Header Checksum: 0x178a [validation disabled]
    [Header checksum status: Unverified]
    Source Address: 0.0.0.0
    Destination Address: 255.255.255.255
User Datagram Protocol, Src Port: 68, Dst Port: 67
    Source Port: 68
    Destination Port: 67
    Length: 280
    Checksum: 0x9fbd [unverified]
    [Checksum Status: Unverified]
    [Stream index: 0]
    [Timestamps]
        [Time since first frame: 0.070031000 seconds]
        [Time since previous frame: 0.070031000 seconds]
    UDP payload (272 bytes)
Dynamic Host Configuration Protocol (Request)
    Message type: Boot Request (1)
    Hardware type: Ethernet (0x01)
    Hardware address length: 6
    Hops: 0
    Transaction ID: 0x00003d1e
    Seconds elapsed: 0
    Bootp flags: 0x0000 (Unicast)
        0... .... .... .... = Broadcast flag: Unicast
        .000 0000 0000 0000 = Reserved flags: 0x0000
    Client IP address: 0.0.0.0
    Your (client) IP address: 0.0.0.0
    Next server IP address: 0.0.0.0
    Relay agent IP address: 0.0.0.0
    Client MAC address: Grandstr_01:fc:42 (00:0b:82:01:fc:42)
    Client hardware address padding: 00000000000000000000
    Server host name not given
    Boot file name not given
    Magic cookie: DHCP
    Option: (53) DHCP Message Type (Request)
        Length: 1
        DHCP: Request (3)
    Option: (61) Client identifier
        Length: 7
        Hardware type: Ethernet (0x01)
        Client MAC address: Grandstr_01:fc:42 (00:0b:82:01:fc:42)
    Option: (50) Requested IP Address (192.168.0.10)
        Length: 4
        Requested IP Address: 192.168.0.10
    Option: (54) DHCP Server Identifier (192.168.0.1)
        Length: 4
        DHCP Server Identifier: 192.168.0.1
    Option: (55) Parameter Request List
        Length: 4
        Parameter Request List Item: (1) Subnet Mask
        Parameter Request List Item: (3) Router
        Parameter Request List Item: (6) Domain Name Server
        Parameter Request List Item: (42) Network Time Protocol Servers
    Option: (255) End
        Option End: 255
    Padding: 00

0000  ff ff ff ff ff ff 00 0b 82 01 fc 42 08 00 45 00   ...........B..E.
0010  01 2c a8 37 00 00 fa 11 17 8a 00 00 00 00 ff ff   .,.7............
0020  ff ff 00 44 00 43 01 18 9f bd 01 01 06 00 00 00   ...D.C..........
0030  3d 1e 00 00 00 00 00 00 00 00 00 00 00 00 00 00   =...............
0040  00 00 00 00 00 00 00 0b 82 01 fc 42 00 00 00 00   ...........B....
0050  00 00 00 00 00 00 00 00 00 00 00 00 00 00 00 00   ................
0060  00 00 00 00 00 00 00 00 00 00 00 00 00 00 00 00   ................
0070  00 00 00 00 00 00 00 00 00 00 00 00 00 00 00 00   ................
0080  00 00 00 00 00 00 00 00 00 00 00 00 00 00 00 00   ................
0090  00 00 00 00 00 00 00 00 00 00 00 00 00 00 00 00   ................
00a0  00 00 00 00 00 00 00 00 00 00 00 00 00 00 00 00   ................
00b0  00 00 00 00 00 00 00 00 00 00 00 00 00 00 00 00   ................
00c0  00 00 00 00 00 00 00 00 00 00 00 00 00 00 00 00   ................
00d0  00 00 00 00 00 00 00 00 00 00 00 00 00 00 00 00   ................
00e0  00 00 00 00 00 00 00 00 00 00 00 00 00 00 00 00   ................
00f0  00 00 00 00 00 00 00 00 00 00 00 00 00 00 00 00   ................
0100  00 00 00 00 00 00 00 00 00 00 00 00 00 00 00 00   ................
0110  00 00 00 00 00 00 63 82 53 63 35 01 03 3d 07 01   ......c.Sc5..=..
0120  00 0b 82 01 fc 42 32 04 c0 a8 00 0a 36 04 c0 a8   .....B2.....6...
0130  00 01 37 04 01 03 06 2a ff 00                     ..7....*..

No.     Time           Source                Destination           Protocol Length Info
      4 0.070345       192.168.0.1           192.168.0.10          DHCP     342    DHCP ACK      - Transaction ID 0x3d1e

Frame 4: 342 bytes on wire (2736 bits), 342 bytes captured (2736 bits)
    Encapsulation type: Ethernet (1)
    Arrival Time: Dec  5, 2004 20:16:24.387798000 CET
    [Time shift for this packet: 0.000000000 seconds]
    Epoch Time: 1102274184.387798000 seconds
    [Time delta from previous captured frame: 0.000314000 seconds]
    [Time delta from previous displayed frame: 0.000314000 seconds]
    [Time since reference or first frame: 0.070345000 seconds]
    Frame Number: 4
    Frame Length: 342 bytes (2736 bits)
    Capture Length: 342 bytes (2736 bits)
    [Frame is marked: False]
    [Frame is ignored: False]
    [Protocols in frame: eth:ethertype:ip:udp:dhcp]
    [Coloring Rule Name: UDP]
    [Coloring Rule String: udp]
Ethernet II, Src: Dell_ad:f1:9b (00:08:74:ad:f1:9b), Dst: Grandstr_01:fc:42 (00:0b:82:01:fc:42)
    Destination: Grandstr_01:fc:42 (00:0b:82:01:fc:42)
        Address: Grandstr_01:fc:42 (00:0b:82:01:fc:42)
        .... ..0. .... .... .... .... = LG bit: Globally unique address (factory default)
        .... ...0 .... .... .... .... = IG bit: Individual address (unicast)
    Source: Dell_ad:f1:9b (00:08:74:ad:f1:9b)
        Address: Dell_ad:f1:9b (00:08:74:ad:f1:9b)
        .... ..0. .... .... .... .... = LG bit: Globally unique address (factory default)
        .... ...0 .... .... .... .... = IG bit: Individual address (unicast)
    Type: IPv4 (0x0800)
Internet Protocol Version 4, Src: 192.168.0.1, Dst: 192.168.0.10
    0100 .... = Version: 4
    .... 0101 = Header Length: 20 bytes (5)
    Differentiated Services Field: 0x00 (DSCP: CS0, ECN: Not-ECT)
        0000 00.. = Differentiated Services Codepoint: Default (0)
        .... ..00 = Explicit Congestion Notification: Not ECN-Capable Transport (0)
    Total Length: 328
    Identification: 0x0446 (1094)
    Flags: 0x00
        0... .... = Reserved bit: Not set
        .0.. .... = Don't fragment: Not set
        ..0. .... = More fragments: Not set
    ...0 0000 0000 0000 = Fragment Offset: 0
    Time to Live: 128
    Protocol: UDP (17)
    Header Checksum: 0x0000 [validation disabled]
    [Header checksum status: Unverified]
    Source Address: 192.168.0.1
    Destination Address: 192.168.0.10
User Datagram Protocol, Src Port: 67, Dst Port: 68
    Source Port: 67
    Destination Port: 68
    Length: 308
    Checksum: 0xdfdb [unverified]
    [Checksum Status: Unverified]
    [Stream index: 1]
    [Timestamps]
        [Time since first frame: 0.070050000 seconds]
        [Time since previous frame: 0.070050000 seconds]
    UDP payload (300 bytes)
Dynamic Host Configuration Protocol (ACK)
    Message type: Boot Reply (2)
    Hardware type: Ethernet (0x01)
    Hardware address length: 6
    Hops: 0
    Transaction ID: 0x00003d1e
    Seconds elapsed: 0
    Bootp flags: 0x0000 (Unicast)
        0... .... .... .... = Broadcast flag: Unicast
        .000 0000 0000 0000 = Reserved flags: 0x0000
    Client IP address: 0.0.0.0
    Your (client) IP address: 192.168.0.10
    Next server IP address: 0.0.0.0
    Relay agent IP address: 0.0.0.0
    Client MAC address: Grandstr_01:fc:42 (00:0b:82:01:fc:42)
    Client hardware address padding: 00000000000000000000
    Server host name not given
    Boot file name not given
    Magic cookie: DHCP
    Option: (53) DHCP Message Type (ACK)
        Length: 1
        DHCP: ACK (5)
    Option: (58) Renewal Time Value
        Length: 4
        Renewal Time Value: (1800s) 30 minutes
    Option: (59) Rebinding Time Value
        Length: 4
        Rebinding Time Value: (3150s) 52 minutes, 30 seconds
    Option: (51) IP Address Lease Time
        Length: 4
        IP Address Lease Time: (3600s) 1 hour
    Option: (54) DHCP Server Identifier (192.168.0.1)
        Length: 4
        DHCP Server Identifier: 192.168.0.1
    Option: (1) Subnet Mask (255.255.255.0)
        Length: 4
        Subnet Mask: 255.255.255.0
    Option: (255) End
        Option End: 255
    Padding: 0000000000000000000000000000000000000000000000000000

0000  00 0b 82 01 fc 42 00 08 74 ad f1 9b 08 00 45 00   .....B..t.....E.
0010  01 48 04 46 00 00 80 11 00 00 c0 a8 00 01 c0 a8   .H.F............
0020  00 0a 00 43 00 44 01 34 df db 02 01 06 00 00 00   ...C.D.4........
0030  3d 1e 00 00 00 00 00 00 00 00 c0 a8 00 0a 00 00   =...............
0040  00 00 00 00 00 00 00 0b 82 01 fc 42 00 00 00 00   ...........B....
0050  00 00 00 00 00 00 00 00 00 00 00 00 00 00 00 00   ................
0060  00 00 00 00 00 00 00 00 00 00 00 00 00 00 00 00   ................
0070  00 00 00 00 00 00 00 00 00 00 00 00 00 00 00 00   ................
0080  00 00 00 00 00 00 00 00 00 00 00 00 00 00 00 00   ................
0090  00 00 00 00 00 00 00 00 00 00 00 00 00 00 00 00   ................
00a0  00 00 00 00 00 00 00 00 00 00 00 00 00 00 00 00   ................
00b0  00 00 00 00 00 00 00 00 00 00 00 00 00 00 00 00   ................
00c0  00 00 00 00 00 00 00 00 00 00 00 00 00 00 00 00   ................
00d0  00 00 00 00 00 00 00 00 00 00 00 00 00 00 00 00   ................
00e0  00 00 00 00 00 00 00 00 00 00 00 00 00 00 00 00   ................
00f0  00 00 00 00 00 00 00 00 00 00 00 00 00 00 00 00   ................
0100  00 00 00 00 00 00 00 00 00 00 00 00 00 00 00 00   ................
0110  00 00 00 00 00 00 63 82 53 63 35 01 05 3a 04 00   ......c.Sc5..:..
0120  00 07 08 3b 04 00 00 0c 4e 33 04 00 00 0e 10 36   ...;....N3.....6
0130  04 c0 a8 00 01 01 04 ff ff ff 00 ff 00 00 00 00   ................
0140  00 00 00 00 00 00 00 00 00 00 00 00 00 00 00 00   ................
0150  00 00 00 00 00 00                                 ......
